:100000000C9408030C9425030C9425030C942503ED
:100010000C9425030C9425030C9425030C942503C0
:100020000C9425030C9425030C9438320C940C3357
:100030000C94CF2C0C9425030C9425030C942503CD
:100040000C9425030C9425030C9425030C94250390
:100050000C9425030C94562D0C9425030C94250325
:100060000C9425030C9425030C9425030C94250370
:100070000C9425030C9425030C9425030C94250360
:100080000C9425030C9425030C9425030C94250350
:100090000C9425030C9425030C9425030C94250340
:1000A0000C9425030C9425030C94250314001A00CA
:1000B0000800150017001C0018000C0012001300A7
:1000C00004001600070009000A000B000D000E00D6
:1000D0000F002D001D001B00060019000500110077
:1000E0001000360037000000E000E30000002C00A4
:1000F000E2002A0000000000E500280014001A00B9
:100100000800150017001C0018000C001200130056
:1001100004001600070009000A000B000D000E0085
:100120000F002D001D001B00060019000500110026
:100130001000360037000000E000E30000002C0053
:10014000E2002A0000000000E500280014001A0068
:100150000800150017001C0018000C001200130006
:1001600004001600070009000A000B000D000E0035
:100170000F002D001D001B000600190005001100D6
:100180001000360037000000E000E30000002C0003
:10019000E2002A0000000000E5002800FD377A5840
:1001A0005A000004E6D6B446020021011600000001
:1001B000742FE5A3E0021600F75D003D8889C65460
:1001C00036C3174FE4FA8077969D973D099720082C
:1001D00047836CBDFE0996BC44177F64AD94C1B9DA
:1001E000B3C031207E84843C3728946FBC223D8884
:1001F000618EC896258D0893DBF9AD10668E037E5F
:1002000033A5BE79B71E55A7DED608FDAE3C5CEC23
:10021000765F9B4B8EF6F91815A284C4ECDC650B57
:100220007FBA551801CF696A0886B462A03FFDD431
:10023000FABFDFB5EA9A39488A8C35F6955ECE79F1
:10024000C94E9DD7EACE565630A7EE1FA8DF853D92
:10025000F41EEAD49CDA2BE6F55EBFBE9BD7A761FD
:1002600093605F146BA2EFB1E91F16DB17C1DEC804
:100270003588EB716540E3B01CD1025693FFD47D05
:100280009660BC9E560430614586F5DC9B11E358B0
:100290003B319E5C5B55D6ED0369D445515C6ED114
:1002A000F9DEF21E082B13E226030CD784228460A9
:1002B00052000000FA1387354C376358000193024F
:1002C000970400009192F905B1C467FB0200000099
:1002D0000004595A010001006904541A861A0000EA
:1002E000020002006504541A861A0000030001008F
:1002F0006A04541A861A0000040002004F04541ABB
:10030000861A4D1A050001006B04541A861A000063
:10031000060002005104541A861A00000700020069
:100320006704541A861A0000080001006C04541A6D
:10033000861A0000090002005304541A861A35195F
:100340000A0002005504541A861A35190B000200DF
:100350005704541A861A35190C0002005904541A0D
:10036000861A35190D0002005B04541A861A3519D5
:100370000E0002005D04541A861A35190F0002009F
:100380005F04541A861A3519100002006104541AC9
:10039000861A3519110002006304541A861A351999
:1003A000120002006D04541A861A000013000200A5
:1003B0006F04541A861A0000140001007104541AC4
:1003C000861A00001500000000005A19D419000018
:1003D00000000000000000002A2B280000000000A0
:1003E00000000000000000000000002900000000E4
:1003F0002C1E3420212224342627252E362D373852
:10040000271E1F202122232425263333362E37385A
:100410001F0405060708090A0B0C0D0E0F10111218
:10042000131415161718191A1B1C1D2F3130232DE4
:10043000350405060708090A0B0C0D0E0F101112E2
:10044000131415161718191A1B1C1D2F3130354C93
:10045000000000000000000000000000000000009C
:10046000000000000000000000000000000000008C
:10047000000000007E0F00D4FFFFFFC700000078DF
:100480001C037600690061006C003A0066003600CB
:100490003400630032006200330063000000120386
:1004A000740061006300610073006800330036006F
:1004B00000000A036D002E006B00690000000403B9
:1004C000090409025B00030100A0FA09040000010D
:1004D00003010100092111010001224400070581E7
:1004E00003080001090401000203000000092111B2
:1004F00001000122220007058203200001070503F5
:100500000320000109040200010300000009211179
:10051000010001227B000705840320000112010075
:100520000200000008434D361300010102030106DA
:1005300060FF0961A1010962150026FF0095207581
:100540000881020963150026FF00952075089102B5
:10055000C005010902A10185020901A100050919CF
:100560000129081500250195087501810205010979
:100570003009311581257F950275088106093815E6
:1005800081257F950175088106050C0A38021581C1
:10059000257F950175088106C0C005010980A1016C
:1005A000850319012AB700150126B70095017510BA
:1005B0008100C0050C0901A101850419012AA002CE
:1005C000150126A002950175108100C005010906DC
:1005D000A101050719E029E7150025019508750116
:1005E00081029501750881010507190029FF150091
:1005F00026FF0095067508810005081901290515D3
:10060000002501950575019102950175039101C0C1
:1006100011241FBECFEFDAE0DEBFCDBF11E0A0E0B6
:10062000B1E0EAEAFBE602C005900D92A43BB107F7
:10063000D9F724E0A4EBB1E001C01D92A438B207C1
:10064000E1F70E941A150C94AF350C94000083302A
:10065000B8F46430A8F44A3098F450E09AE0699F06
:10066000400D511D1124FA0198E2899FE00DF11D02
:100670001124EE0FFF1FE455FF4F859194910895CB
:1006800081E090E008959C013A9521153F4150F595
:10069000FC01EE27F170BC0166277270AC014427A3
:1006A00054709C012227387094FF0EC080E1EF2B1C
:1006B00009F480E0672B09F08062452B09F0806423
:1006C000232B89F08068089581E0EF2B09F480E006
:1006D000672B09F08260452B09F08460232B19F009
:1006E0008860089580E00895CF93DF93EB010E9426
:1006F0004303FE010995DF91CF910895CF93DF93D6
:10070000EC01805E9109089720F062E376E0209783
:1007100011F464E276E0CE010E9474038C2F0E94F3
:100720008305DF91CF910895CF93DF93EC010E9471
:10073000CC05CE01805E9109089720F069E376E050
:10074000209711F46BE276E0CE010E947403DF91F2
:10075000CF91089581E008950E94AA03089581E051
:1007600008950E94AA0308950E94B1030895089570
:100770000E94B7030895A6E0B0E0E1ECF3E00C942A
:10078000F73449835A839E833091BB0189819A81D2
:1007900031111AC03E81332399F0222389F00E943F
:1007A0001D0A182F682F89819A810E94F909698191
:1007B0007A81812F0E94A3122696E3E00C941335D0
:1007C0000E940B0A182FF3CF0E941D0A69817A81BB
:1007D000F1CFFC01262F87819085009741F440815D
:1007E000518162817381848195810E94BB03089548
:1007F0000F931F93CF93DF93EC0161E00E94E90315
:100800008C01BE010E94AC03882351F0BE01C801D7
:100810000E9422208170DF91CF911F910F91089546
:1008200080E0F8CFCF93DF93EC0160E00E94E90312
:10083000BE010E94B803DF91CF91089581E0089531
:100840000E941E040895CF93C82F0E9456068C2F35
:100850000E9420042FEF84E39CE0215080409040D0
:10086000E1F700C00000CF91089581E00E942304C9
:100870000E947A2D089580E00E9423040E948B2D0F
:1008800008950F931F93CF93DF93EC018B010E9488
:10089000D228882329F061E0C8010E94E903EC0115
:1008A000B801CE010E94462A811106C080E0DF9186
:1008B000CF911F910F910895B801CE010E94E718C2
:1008C0008823A1F3B801CE010E94B403882371F3F9
:1008D000B801CE010E94FA28882341F3B801CE0165
:1008E0000E943A1D882311F3B801CE010E94982975
:1008F0008823E1F2F8018581882361F0C330FCE7A9
:10090000DF07E9F058F4C115ECE7DE07A9F0C130C4
:10091000DC47B9F0C8010E94AF03C9CFCB358CE7E3
:10092000D807A9F0CC35ECE7DE0771F0CA35DC4713
:1009300089F70E94D10FEECF0E943504B7CF0E94F5
:10094000D90F0E943B04B2CF0E94C70FE3CF0E9491
:10095000D50FE0CFCF93DF93EC0161E00E94E90374
:10096000BE010E944104DF91CF9108950E94AB2CFB
:100970000E94EE0408950E94F2040E94B02C089593
:10098000982F92959F7011F0892F94E0282F26952B
:10099000269511F09E5F822F869509F09F5F892F23
:1009A0000895089581E008950895CF93DF93D82F97
:1009B0000E94D204C82F882319F08D2F0E94D404DE
:1009C0008C2FDF91CF9108950895CF93C82F0E9467
:1009D000D1048C2F0E94D504CF91089580E00E940D
:1009E000E50408950E94812B0E94E5040895CF93A9
:1009F0000E94812BC82F8091B6018C1779F0C0938B
:100A0000B6010E943B2D6093B7017093B8018093AB
:100A1000B9019093BA018C2F0E94E504CF910895FB
:100A2000019708F40895EFE9FFE03197F1F700C06E
:100A30000000F6CFAFE0B0E0E0E2F5E00C94F63471
:100A40004A875B876C877D878E879F87882349F0DD
:100A50008091BC019091BD0101969093BD0180935E
:100A6000BC018F8581110E94AE0E1F8218861986E7
:100A700086E0FE013A96DE01119601900D928A956C
:100A8000E1F78091EC0382FF12C0809151049091B4
:100A90005204892B61F00E946A0E882319F082E0CB
:100AA0000E949B0F0E94460E81110E941B0F8D8198
:100AB00081110FC009811A812B813C814D815E819A
:100AC0006F81788589850E94BA0D2F96E4E00C9499
:100AD0001235CE0101960E94F8038111EBCFF5CFBC
:100AE000FC012481213021F4808191810E944A0AF5
:100AF0000895662329F00E946B250E9450260895D0
:100B00000E94D725FACFCF93C82F882399F08CEF76
:100B10008C0F813A88F48C2F0E94062C882329F0B0
:100B20008C2F0E94492C0E946C0F8C2F0E94412C0C
:100B30000E946C0FCF91089580E28C0F883048F4AA
:100B4000C77081E001C0880FCA95EAF70E948E0E37
:100B5000EFCFEBE5EC0FE33040F4F0E0E65AFE4F68
:100B6000808190E00E94A72BE5CFE8E5EC0FEB3108
:100B700050F4F0E0EE0FFF1FEC5DFE4F808191819D
:100B80000E94CC2BD7CF83E38C0F833198F661E0A2
:100B90008C2F0E947905CECF882381F19CEF980F8E
:100BA000913A28F40E94492C0E946C0F089590E21B
:100BB000980F983050F4877091E001C0990F8A9592
:100BC000EAF7892F0E94940EEFCF9BE5980F9330A0
:100BD00028F490E080E00E94A72B089598E5980FF4
:100BE0009B3128F490E080E00E94CC2B089593E3A1
:100BF000980F933118F460E00E94790508951F93CF
:100C0000CF93DF93182FEB010E948305209739F4CF
:100C1000812F0E94CC05DF91CF911F9108958FE91C
:100C20009FE00197F1F700C000002197EFCF60919E
:100C30006F0470917004893321F060916D0470919C
:100C40006E040E94FF050895882321F00E948E0EF5
:100C50000E946C0F0895882321F00E94940E0E9438
:100C60006C0F0895882321F00E94A10E0E946C0F42
:100C70000895882321F00E94A70E0E946C0F08950A
:100C800090E080E00E94A72B90E080E00E94CC2BB7
:100C90000E94AE0E0E946C0F0E946C260E9450268D
:100CA00008950E94512C0E94400608950E949B0EB8
:100CB0000E945106089592959F70963091F058F4D5
:100CC000925F9F70923058F4803F19F030F4883E64
:100CD00030F481E008959A5FF4CF843FD1F380E04F
:100CE0000895883EB0F3813FD1F7F3CFFC018481B2
:100CF000882371F087819085009729F00E948511E3
:100D00000E945B060895808191810E944A0AF8CF73
:100D100080E00895B0E0A0E0E0E9F6E00C94F13462
:100D20006C01EB01FC011581F680F2949FE0F92241
:100D30000E94840EE82E8823F9F0E12E1123E1F0C1
:100D40008D2F807F803461F080E28C0F883010F12D
:100D50008D2F807E803221F4C230E0F0FF20D1F070
:100D60008091EC0382FF16C082E00E949B0F0E94DC
:100D7000840E91E0E82EE926BD2EB2948FE0B822D1
:100D8000FBE0FB1508F463C0EB2DF0E0EF54FA4CE8
:100D90000C94DB34E12CF0CF0D2F0F708D2F807F62
:100DA00011F00295007F112399F0002359F080E2A1
:100DB0008C0F883010F0C11107C0802F0E948E0E5A
:100DC0000E946C0F8C2F3BC0802F0E94A10EF8CF89
:100DD0008C2F0E94CC050023D1F180E28C0F88304B
:100DE00010F0C11104C0802F0E94940E03C0802F08
:100DF0000E94A70E0E946C0F2AC00D2F0F708D2F1E
:100E0000807F803211F00295007FCC2351F0C130F9
:100E100009F480C0112309F48CC0FF2009F445C0F7
:100E2000D1CF8091EC0382FD3CC0112359F0002307
:100E300029F0802F0E948E0E0E946C0F80E00E948D
:100E4000830505C080E00E94CC050111CCCFEB2DBD
:100E5000E850FF0B349720F40E94812B0E94E50498
:100E6000CE010E945B06811189C11092BD011092D2
:100E7000BC01EE2089F00E94660E80FD0DC0F601D7
:100E800015820E94600E0E946D09C6010E94FF0833
:100E90000E94600E0E947909CDB7DEB7E9E00C949C
:100EA0000D351123E9F0F11004C0802F0E942406B3
:100EB000CECF21E0F21204C0802F0E94D40EC7CF03
:100EC00080916B04823018F28F11C1CF802F0E9465
:100ED0002406802F0E94EB0E802F0E94B80EB7CF01
:100EE000F1100AC0802F0E942B06802F0E94EB0E6B
:100EF000802F0E94C40EABCF80916B04823008F427
:100F0000A6CF31E0F312A3CF0E948B0E802309F409
:100F10009ECFE8CF80917104112321F08F1508F442
:100F200096CFC3CFF81608F092CF802F0E942B06E1
:100F30008ECFFF20D1F380916F0490917004C9335C
:100F400021F080916D0490916E040E9410058C2F09
:100F50000E94CC057CCF8D2F86958695837061F09D
:100F6000813009F074CFCE019370111102C080E07E
:100F700090E00E94CC2B6BCFCE019370111102C078
:100F800080E090E00E94A72B62CF612F8C2F0E94FF
:100F900079055DCF8D2F837081F5111158CF4C2FBE
:100FA000429546954770440F440F8C2F8F70042E46
:100FB00001C0880F0A94EAF72C2F2071C4FF07C0E4
:100FC0002FE030E001C0220F4A95EAF720959D2FCF
:100FD000969596959370822B923049F058F4913003
:100FE00019F00E94490933CF0E94430930CF0E9473
:100FF0004F092DCF0E9440092ACF8695112311F069
:101000008D2F8170882309F422CF4C2F429546956D
:101010004770440F440F8C2F8F70042E01C0880F2F
:101020000A94EAF72C2F2071C4FF07C02FE030E0AC
:1010300001C0220F4A95EAF720959D2F9695969527
:101040009370822B923049F058F4913019F00E943D
:101050009809FDCE0E949209FACE0E949E09F7CE11
:101060000E945B09F4CE0D2F0F70112329F0802F01
:101070000E946D098C2F1ACF8C2F0E942B06802F77
:101080000E947909E4CEC23F51F160F4C03FB9F04B
:10109000C13F81F0112309F46CC0F11093CE8D2F64
:1010A0008F7121C0C33F11F1C43FA1F78091EC03C0
:1010B00082FD26C08D2F8F71112311F314C08091F2
:1010C0007104112341F0F81608F0C1CE8D2F8F71F5
:1010D0000E948609BCCE8F1508F4B9CEF7CF8D2FAC
:1010E0008F711111CDCF0E946D09B1CE112329F05E
:1010F0008D2F8F710E946409AACE0E946009A7CE2D
:1011000080916B04823010F11123B1F00E94660EC1
:10111000843041F40E94910F8D2F8F710E947909C4
:10112000E12C95CE80916B0463E0F816C8F78D2F03
:101130008F710E94730FF4CFF81620F00E94910F68
:1011400064E0F5CF81E00E949B0FEACF112331F0DC
:1011500063E08D2F8F710E94730F79CE81E00E9422
:101160009B0F81E08F1508F072CE82E00E949B0FEA
:101170006ECEF110E0CE8D2F8F7182CF112319F03A
:10118000F11073CE76CEF11070CE20E0F6014081E2
:10119000518162817381848195810E94BB03B60174
:1011A0000E94A01B882309F460CE8091BC0190911D
:1011B000BD01029709F059CE8C2F0E94170655CE1B
:1011C0000F931F93CF93DF93EC018F819885009746
:1011D00081F00E9485118C010E94A4090E943F09A0
:1011E000B801CE010E948A06DF91CF911F910F9125
:1011F0000895688179818D810E94550AECCFCF9343
:10120000DF93EC018C81882399F0CE010E94AA041F
:10121000811111C00E94840E882351F08D81882392
:1012200039F08091EC0382FF03C082E00E949B0FA3
:10123000DF91CF910895CE010E94E008CE010E9477
:101240001204F6CFA6E0B0E0E8E2F9E00C94F8343E
:101250002696E2E00C941435A9E0B0E0E2E3F9E070
:101260000C94F6342996E4E00C94123508950E940B
:10127000360908950E9437098093CE010895089594
:101280000E943A0908959091CE01892B0E943A0953
:1012900008959091CE0189230E943A090895909172
:1012A000CE0189270E943A0908950E9436090895BF
:1012B0000E94550908950E9458098093CD01089510
:1012C00080E00E945B09089591E001C0990F8A9522
:1012D000EAF7892F0E945B09089521E030E001C000
:1012E000220F8A95EAF78091CD01822B0E945B093B
:1012F000089521E030E001C0220F8A95EAF7209599
:101300008091CD0182230E945B09089521E030E0A5
:1013100001C0220F8A95EAF78091CD0182270E94B1
:101320005B0908959091CD01892B0E945B09089576
:101330009091CD0189230E945B0908959091CD0180
:1013400089270E945B0908950895262F277091E050
:1013500001C0990F2A95EAF723E0769567952A95BB
:10136000E1F7FB01EE0FFF1FE60FF71FE40FF51F7C
:1013700050E040E0682F70E08191DF0111979B0100
:10138000042E02C0369527950A94E2F72170219524
:101390002827292328272C934F5F5F4F433051057F
:1013A00059F70895A82FA77023E0969587952A9559
:1013B000E1F7FC01EE0FFF1FE80FF91FE60FF71F23
:1013C00050E040E080E0219130E00A2E02C03695E6
:1013D00027950A94E2F721703327042E01C0220FCB
:1013E0000A94EAF7822B4F5F5F4F4330510559F75C
:1013F0000895262F943070F48A3060F4682F70E0DE
:101400008AE0989F600D711D11244EEB51E0822FF0
:101410000E94A5090895292F943068F48A3058F461
:1014200090E06EEB71E03AE0239F800D911D112456
:101430000E94D209089580E00895CF92DF92FF9232
:101440000F931F93CF93DF936C010091CD01809197
:10145000CE01082BC3E0D0E010E0FC2EC8010C2E1A
:1014600002C0959587950A94E2F780FD0CC02197FC
:10147000A0F7F12C8F2DDF91CF911F910F91FF904D
:10148000DF90CF900895B6018C2F0E94BE12019775
:1014900071F3F0CFCF93DF93EC010E941D0ABE01E0
:1014A0000E94BE12DF91CF9108951F93CF93DF93D7
:1014B000EB019091BB01992339F0CB010E944A0ABC
:1014C000DF91CF911F910895882369F0CB010E948D
:1014D0001D0A182F682FCE010E94F909BE01812F25
:1014E0000E94BE12EDCFCB010E940B0A182FF6CF3F
:1014F000E1E0F0E0DF0102C0AA0FBB1F6A95E2F74E
:10150000BD01DF0102C0AA0FBB1F4A95E2F76A2B9B
:1015100001C0EE0F2A95EAF7962F9823961302C082
:101520008E2B0895E0958E230895242F462F682F43
:101530008091CD010E94780A0E945B090895FF9274
:101540000F931F93CF93DF93C091CF0189E0F82EC3
:101550008091D0018C1305C0CDB7DEB7E5E00C94C7
:101560001135D0E0FC9EF001FD9EF00D1124EF52EC
:10157000FE4F008111812281338144815581668132
:10158000778180850E942C092196C770E1CF0F9347
:101590001F930091190210911A0220911B023091A1
:1015A0001C0240911D0250911E0260911F02709119
:1015B0002002809121020E942C091F910F91089511
:1015C000482F2091CF019091D00159E0291302C0FA
:1015D00080E0089530E0529FF001539FF00D1124F8
:1015E000EF52FE4F8181681306C08081481303C00B
:1015F00085818111EECF2F5F3F4F2770E7CFB0E09D
:10160000A0E0E5E0FBE00C94F33480911F02807FC2
:1016100009F054C080911E02882309F44FC0E09164
:10162000CF0189E0D82E8091D0018E1709F446C0F1
:101630000E2F10E0ED9DF0011124EF52FE4F84813A
:10164000882309F440C0D09EE001D19ED00D112422
:10165000FE01EF52FE4F918180911A02981333C020
:1016600090818091190298132EC0858181112BC021
:10167000E280F38080911B0290911C02E81AF90A23
:1016800060E089E192E00E94E90369E172E00E9472
:10169000C718E816F906B8F480911F028F708061B0
:1016A00080931F02C952DE4F88818F7080618883CA
:1016B00089E192E00E94FF080E949F0ACDB7DEB741
:1016C000E7E00C940F35F8013196E770ACCF2F921C
:1016D0003F925F926F927F928F929F92AF92BF9252
:1016E000CF92DF92EF92FF920F931F93CF93DF93EE
:1016F000CDB7DEB768970FB6F894DEBF0FBECDBF8B
:101700008C0186E0F801DE01539601900D928A95D6
:10171000E1F7D80114967C9014971596EC9089E126
:10172000282E82E0382E80911D0281113AC071105E
:101730001BC0FF24F3948F2D68960FB6F894DEBF7C
:101740000FBECDBFDF91CF911F910F91FF90EF9012
:10175000DF90CF90BF90AF909F908F907F906F90D1
:101760005F903F902F900895EE20B9F0C8010E943D
:101770007606F82E882389F089E0F801A9E1B2E025
:1017800001900D928A95E1F789E192E00E9470053F
:101790000E94FF0A0E94C70ACECFC8010E94FF081C
:1017A000C8CFF80160805180C280D38060E089E1B9
:1017B00092E00E94E9035C01F0901E0280911B02FE
:1017C00090911C02FF2009F433C14601881A990A3E
:1017D00060E089E192E00E94E90369E172E00E9421
:1017E000C7188816990608F0BEC0772009F4A1CF63
:1017F00080911F02382F307F20911A02D801119654
:101800009C91119731115CC0291321C020911902BC
:101810009C9129131CC040912002509121021796DF
:101820002D913C914217530791F4E11095C18F70AF
:10183000806180931F020E94C70A89E192E00E94A2
:10184000FF0880911F02F8018683F12C74CFE1100C
:1018500083C1652D862D0E94E00A882309F45BC1AF
:1018600069E172E0C5010E94951B882309F453C108
:1018700089E192E00E94FF0889E0E9E1F2E0DF01FE
:101880001D928A95E9F70E94C70ADFCF2A5F2F7061
:10189000223078F0C8010E94FF08EF2C5BC1992329
:1018A00019F0882309F456C1805E883008F452C1CB
:1018B000F1CF803F08F44EC1815F833058F74AC1B1
:1018C000291320C0209119029C9129131BC040911B
:1018D00020025091210217962D913C9118974217A2
:1018E000530781F4E1100EC016968C93C8010E9434
:1018F000FF0889E0F801A9E1B2E001900D928A9514
:10190000E1F748CFC8010E947606882309F445CF45
:10191000EE2009F442CF80911F028032B8F020916E
:10192000190230911A023B872A87DD86CC86909176
:101930001D029E871F86888B809120029091210234
:101940009A8B898BCE010A960E94FF0889E0F801E4
:10195000A9E1B2E001900D928A95E1F70E94FF0A99
:101960000E94C70AE6CE80911F02982F907FA1F4B3
:101970006C2DDE8ACD8A462D552D7E89872D9E2D94
:101980000E94220989E192E00E94FF0889E0F101AA
:1019900011928A95E9F777CF772009F4CACE209182
:1019A0001A02D80111969C91119729131DC02091FC
:1019B00019029C91291318C04091200250912102D4
:1019C00017962D913C9118974217530769F4E1102F
:1019D0000BC016968C93C8010E94FF0889E0F101A4
:1019E00011928A95E9F7A7CEC8010E94760688234E
:1019F00009F4D3CEEE2009F4D0CE80911F028032BC
:101A000008F4A4CF2091190230911A023A83298355
:101A1000DC82CB8290911D029D831E828F838091F8
:101A200020029091210299878887CE0101968CCF60
:101A30005601A81AB90A60E089E192E00E94E90320
:101A400069E172E00E94C718A816B90608F053C0F1
:101A5000772009F46ECEFE2CEE2009F49ECE9091F4
:101A60001A02D80111968C911197981336C0909153
:101A700019028C91981331C02091200230912102DB
:101A800017968D919C912817390739F580911B0283
:101A900090911C02C81AD90AB8ECCB16D104A0F454
:101AA00090911F0290FD10C0907F71F080911F02F5
:101AB000F8018683903F09F419CF982F907F905FAB
:101AC0008F70892B868312CF89E0F801A9E1B2E0FB
:101AD00001900D928A95E1F72ECEC8010E947606FC
:101AE000811134CF80911F02816080931F02C80151
:101AF0000E94FF0820CE6C2DDE8ACD8A462D552D02
:101B00007E89872D9E2D0E94220989E0D1011D9298
:101B10008A95E9F73FCE652D862D0E94E00AE82ED2
:101B2000811193CE6B8A5C8A8B899C890E944A0AB8
:101B3000292F22952F70243008F0A8CE9F702230D4
:101B400008F4ADCE992309F4AFCEF8019681907FC9
:101B500009F0AACEFE2CEFCD80911F028160809308
:101B60001F0269E172E0C5010E94991B882309F4F4
:101B70006CCE7ECEA2E1B0E0E0ECFDE00C94F5345A
:101B80000A871B872C873D874E875F87688B798BF9
:101B90008A8BCE010A960E94670B8823C9F04E8576
:101BA000442351F00A851B852C853D855F85688916
:101BB00079898A890E942C0989E0F82E8091CF01C9
:101BC0009091D00189133DC06296E5E00C941135E7
:101BD00089E0FE013A96DE01119601900D928A95F8
:101BE000E1F78E85882341F32091D00130E0C901CF
:101BF0000196877099274091CF014817190699F0EF
:101C000099E0929FD001939FB00D1124AF52BE4F27
:101C1000FE01319601900D929A95E1F78093D001E3
:101C20000E949F0AC9CF0E9456061092D0011092BE
:101C3000CF0189E0E9E1F2E0DF011D928A95E9F741
:101C4000BBCF8F9DC00111248F529E4F0E94670B06
:101C5000882309F4B9CFE091CF01FE9EF001112451
:101C6000EF52FE4F008111812281338144815581E1
:101C70006681778180850E942C098091CF0190E058
:101C80000196877099278093CF0198CF8091510456
:101C900090915204892B89F00E942F2D20912D02C2
:101CA00030912E02AC01421B530B81E02091510474
:101CB000309152044217530708F480E08170089570
:101CC00080912C02869586958695089580912C02A8
:101CD000877008950E942F2D20912A0230912B02A7
:101CE000821B930B20915104309152048217930769
:101CF00048F080912C0282FB882780F991E08927A7
:101D00008170089580E0FCCF90912C02977081E063
:101D100009F480E0089580913A02089590913A0282
:101D2000892B80933A020895809590913A029823E6
:101D300090933A02089510923A02089580913902E0
:101D4000089590913902892B8093390208958095E6
:101D50009091390298239093390208951092390294
:101D6000089580913002089508950E94B40E089558
:101D700090912F02292F2823281729F0892B80934F
:101D80002F020E94B50E089590912F02292F28232B
:101D900031F08095892380932F020E94B50E08951B
:101DA00008950E94D00E0895CF93C82F80913002DD
:101DB0008C238C1771F00E942F2D90932E0280930C
:101DC0002D02809130028C2B809330028C2F0E9448
:101DD000D10ECF91089590913002292F282381F0C0
:101DE0008095892380933002882359F00E942F2DFB
:101DF00090932E0280932D02809130020E94D10E8A
:101E0000089590E080E0F4CFCF93C82F8091EC0349
:101E100082FF0FC0809130028C1759F00E942F2D45
:101E200090932E0280932D02C09330028C2F0E943B
:101E3000D10ECF91089580913002882349F01092FD
:101E4000300210922E0210922D0280E00E94D10EDC
:101E500008950F931F93CF93DF930091000110918A
:101E60000101C0913A0280913902C82B8091300261
:101E7000882399F08091510490915204892B29F084
:101E80000E94460E81110E941B0F80913002C82BC8
:101E90000E94F12B81110E941B0FF801C083C09199
:101EA0000001D091010148E050E062E272E0CE0111
:101EB0000E942835892B59F088E0FE01A2E2B2E0A9
:101EC00001900D928A95E1F7CE010E948E2BDF9151
:101ED000CF911F910F9108950E94290F08950895A1
:101EE0000E946F0F08959091EC0392FF17C098E045
:101EF000899F90011124622B60932C020E946D092E
:101F00000E942F2D90932B0280932A0280912C0205
:101F10008695869586950E94700F08950E946D099A
:101F2000089510922C0210922B0210922A0280E047
:101F30000E94700F089590912C02809589238093C0
:101F40002C02282F277069F4891759F09091EC031F
:101F500092FF07C08695869586950E9479090E9412
:101F6000910F08959091EC0392FB222720F92817F6
:101F700069F080FB92F99093EC038091EB039091D0
:101F8000EC030E94FB0F82E00E949B0F089580915A
:101F9000EC0382FB882780F991E089270E94B20F29
:101FA000089581E00E94B20F089580E00E94B20F70
:101FB00008956FEF7FEF90E080E00E9491350895E3
:101FC00090E080E00E945D35853E9E4F19F40E94AE
:101FD000E129089580E0089582E090E00E9455355F
:101FE000089583E090E00E945535089584E090E0E4
:101FF0000E945D350895BC0184E090E00E94913517
:102000000895AB01BC018FE090E00E9485350895F2
:10201000AB01BC0183E190E00E948535089560E04A
:1020200070E0CB010E940810089560E070E0CB01E1
:102030000E9401100E940F100895A8E0B0E0E3E2B2
:10204000F0E10C94F83465EE7EEF90E080E00E94C1
:10205000913560E082E090E00E94733581E08093EA
:10206000CE0161E083E090E00E94733560E074E1AE
:1020700084E090E00E94913560E086E090E00E946C
:10208000733560E087E090E00E94733540E050E0F7
:10209000BA0188E090E00E94853560E083E290E03C
:1020A0000E94733560E08CE090E00E94733560E040
:1020B0008DE090E00E94733519821A821B821C8287
:1020C0001D821E821F82188648E050E067E170E0A2
:1020D000CE0101960E94633540E050E0BA018FE1E5
:1020E00090E00E94853580E00E94FA290E94292A0A
:1020F0000E9415102896E2E00C9414350E941D10E1
:102100000895A6E0B0E0E7E8F0E10C94F6340E9410
:102110002F2D8C0180913B0290913C0280179107FA
:1021200081F019821A820E942F2D682F49815A81CD
:10213000792F80E090E00E941A0510933C020093F2
:102140003B022696E4E00C9412350E943B2D6093EE
:10215000490270934A0280934B0290934C02609321
:102160004502709346028093470290934802089577
:10217000089508950E94B810089508950E94BD1012
:10218000089584EB93E10E9431150E94AF150E94DF
:10219000A11A0E94B9100E94BA10089581E0089512
:1021A0000E94CE1008950E94CE10089508950895BB
:1021B0000E94D6100E94D71008950E94E00F81114E
:1021C00002C00E947E100E94EC0F80934D020E947C
:1021D000F60F9093EC038093EB030E946C1E0E9419
:1021E000F10F0E9440098091CD010E945809089585
:1021F0000E94262D0E94392A0E948A140E94DD1016
:102200000E94E4040E94BE1008950E945C290E946E
:10221000DB1F0E94FF1C0895A6E0B0E0E2E1F1E1BF
:102220000C94EC340E94D01081110CC00E948110DB
:102230000E9405110E948E260E94F7042696EEE069
:102240000C9408350E94A0142DE3822E22E0922ED9
:10225000640110E0F601E190F1906F01812F0E947E
:10226000D4131F5F143009F44BC0E816F90691F33C
:1022700080914D0281FD0E94DD130E94D310782EC3
:1022800010E066246394812F0E94D4137C01F40132
:10229000A190B1904F018A159B0561F1A826BF243A
:1022A00000E0CC24C394D12CC5018C219D21892B25
:1022B000C1F07720B1F009831A830E942F2D9C83EF
:1022C0008B836D8221E0C7018C219D21892B09F42C
:1022D00020E049815A816B817C818D81922F0E94FF
:1022E0001A050F5FCC0CDD1C0A30F1F6F4013297B1
:1022F000F182E0821F5F143031F60E94A51098CF62
:10230000E816F90609F0B4CF91CF1F93CF93DF936E
:102310000E94C312EC01C11580E5D807F0F5C11584
:1023200080E4D80708F09CC0C03ED10520F5CD3C24
:10233000D10508F082C0C83AD10578F4C53AD10574
:1023400008F073C0C130D10519F1209709F1C430EC
:10235000D105F0F4D0E0C0E01BC0C33CD105D0F7FC
:10236000C85AD0E0CC0FDD1FC35ADE4F0990D88188
:10237000C02DD4640DC0C11580E2D80708F0D1C0CB
:10238000C11581E0D80708F05AC0C83ED10510F742
:10239000CE01DF91CF911F910895C03682E5D80715
:1023A00018F5C03482E5D80708F06BC0C03282E56A
:1023B000D80708F05FC0C11582E5D80708F497C0B8
:1023C0002C2F2695269580E2289F900111248C2F92
:1023D0008370C1E0D0E002C0CC0FDD1F8A95E2F728
:1023E000C22BD32BDD68D4CFC03A82E5D80760F486
:1023F000C03882E5D80708F459C0CF71D0E0DC2F8F
:10240000CC27C46FD06AC4CFC03C82E5D80708F49B
:1024100062C0C03E82E5D80708F09CCFDC2FCC27F5
:10242000CC27DF71C06FD06AB3CFC55AD0E0CD568C
:10243000DE4FC881D0E0D064ABCFD065A9CF8D2F5F
:102440000E946513182FCE0199270E94C312C12F35
:10245000D0E0DC2FCC27CC27DF71C82BD92B98CF2D
:10246000CE0199270E94C312CC27DF70C82BD92B2D
:10247000D06A8ECFCF71D0E0DC2FCC27C16FD06A6D
:1024800087CF2C2F26952695277080E2289F9001D4
:1024900011248C2F8370C1E0D0E002C0CC0FDD1F6F
:1024A0008A95E2F7C22BD32BDC6872CF2C2F2695AE
:1024B0002695277080E2289F900111248C2F83702D
:1024C000C1E0D0E002C0CC0FDD1F8A95E2F7C22B3D
:1024D000D32BDA685DCF8C2F8F710E946513C82FC4
:1024E000D0E0DC2FCC27CC27DF71D06251CF8C2FEE
:1024F0008F710E94651355E0D695C7955A95E1F7FF
:10250000CF70D0E0DC2FCC27282F30E084FF05C02F
:1025100044E0220F331F4A95E1F7C22BD32BD06939
:1025200037CF8D2F8F710E946513182FCE019927F9
:102530000E94C312C12FD0E0DC2FCC27CC27DF7143
:10254000C82BD92BD2CF462F20911F0330912003C7
:10255000232B89F4703F39F4603F69F480914D0476
:1025600090914E040895743030F46A3020F4672F4F
:102570000E949A23089590E080E008950E94A3129B
:102580000E948511089582389105B9F1B0F4813324
:10259000910509F47DC048F48932910509F46DC0B4
:1025A0008A32910509F47BC008958533910509F4B9
:1025B0005FC08933910509F10895833E9105D9F1F2
:1025C00038F4803E910529F1823E910579F1089514
:1025D000863E9105D9F1873E910509F43EC0843EBF
:1025E000910541F52091EC0321FF24C08091EB037C
:1025F00084FD19C087EE90E008952091EB032370CD
:1026000009F05AC02091EC0323FF14C089E290E046
:1026100008952091EB0320FD38C03091EC0330FF8A
:1026200009C024FF43C090E080E008952091EB03AF
:1026300022FDF7CF08952091EB0322FD3AC030919F
:10264000EC0330FD39C024FFF5CFEDCF2091EB0333
:1026500023FFF0CF24FDE7CFCDCF2091EB0323FD67
:102660002EC03091EC0331FFEECF84EE90E0089560
:102670002091EB0325FFDECFC9CF2091EB0325FD91
:1026800021C02091EC0323FFD5CF89E390E0D2CF86
:102690002091EB0326FFCECF8AE290E008952091AF
:1026A000EB0326FFC7CF81E390E0089583EE90E02F
:1026B000089582EE90E0089580EE90E0089586EE11
:1026C00090E0089585E390E008959091EB0392FFE8
:1026D00010C041E0282F2471243009F040E031E09F
:1026E000282F2871283009F030E0431711F02CE032
:1026F000822793FF10C041E0282F2471243109F074
:1027000040E031E0282F2871283109F030E04317EC
:1027100011F02CE082273091EC0330FF10C051E023
:10272000282F2171213009F050E041E0282F287135
:10273000283009F040E0541711F029E0822731FFDA
:1027400010C041E0282F2171213109F040E031E033
:10275000282F2871283109F030E0431711F029E0C3
:10276000822794FD877E089580E0089508950E9451
:10277000B613089508950E94BA130895E82FF0E063
:10278000EE0FFF1FEB50FC4F21E030E002C0220FA4
:10279000331F6A95E2F7808191812823392381E0F4
:1027A000232B09F480E00895E82FF0E0EE0FFF1FDF
:1027B000EB50FC4F808191810895089580EA8A95BD
:1027C000F1F7089500C008950E94DE130895F8946B
:1027D000E82FE295EF70F0E031A1282F2F7081E013
:1027E00090E001C0880F2A95EAF7982F90959323DF
:1027F00091A392A1892B82A378940895CF93DF931C
:1028000080E90E94E71386EF0E94E71387EF0E949A
:10281000E71381E30E94E713C6E9D1E089918F3F76
:1028200011F00E94E71381E0C03AD807B9F7DF91B1
:10283000CF910895AF92BF92DF92EF92FF920F93E4
:102840001F93CF93DF938C01D62EC62FD0E0CE01FD
:1028500080569E4F7C01FC0120812F3F09F44DC022
:10286000F894E22FE295EF70F0E031A12F7081E053
:1028700090E001C0880F2A95EAF7932F982B91A337
:1028800092A18095892382A378940E94E213E6E9BD
:10289000F1E040EA51E021E030E0B12CA12C61915F
:1028A0006F3FA9F1A62FA295AF70B0E090968C91E2
:1028B00090E06F7002C0959587956A95E2F780FD6C
:1028C00026C0C901A82AB92A220F331F4E175F0755
:1028D00031F7F70180818F3F11F00E94E71361E02B
:1028E000A114B10409F460E08D2D0E94E413CC0F13
:1028F000DD1FC00FD11FB982A882DF91CF911F9138
:102900000F91FF90EF90DF90BF90AF90089590E00F
:1029100080E0D8CF0E94FE1388E0E5EFF3E0DF010E
:10292000982F1D929A95E9F7EDEEF3E0DF011D92E5
:102930008A95E9F784E00E94DB140E94B71308959A
:10294000A8E0B0E0E6EAF4E10C94F5348E010F5F04
:102950001F4F88E0F80111928A95E9F7F12C6F2D4D
:10296000C8010E941A14F394F4E0FF12F8CF48E073
:1029700050E0B8018DEE93E00E94283521E00097E9
:1029800009F420E0892B41F088E0F801ADEEB3E0D6
:1029900001900D928A95E1F744E065EF73E08DEECA
:1029A00093E00E94DC14182F0E94BB13812F2896FD
:1029B000E5E00C9411350895B0E0A0E0E2EEF4E11A
:1029C0000C94F2346C017B01042FC22F222379F086
:1029D00081E0809350020E942F2D90934F028093AC
:1029E0004E0280E0CDB7DEB7E8E00C940E35D09112
:1029F0005002DD23B1F380914E0290914F020E946C
:102A0000472D059770F310E0000F111FA801B601C4
:102A1000C7010E942835892B31F0A801B601C701F2
:102A20000E943535CD2F109250028C2FDBCF0E94A3
:102A30000C1108950E94C82C0E941B2F0E94C110E7
:102A40000E94352F0E94F8100E94422F0E94472FAB
:102A50000E9417150E94612F0E94E92D0E94D81034
:102A6000F5CF9093B5018093B401089581152CE7BB
:102A7000920741F42091210330912203232B11F47A
:102A800090E080E00895E9E8F2E090E080E060EA1C
:102A900078E14CE258E129EB37E17783668351878F
:102AA000408733872287978786870196709688307C
:102AB000910599F70895CF92DF92EF92FF921F93BD
:102AC000CF93DF93CDB7DEB72A970FB6F894DEBF6A
:102AD0000FBECDBFEDEFF3E080E5DF011D928A95DB
:102AE000E9F7E1E5F2E088E3DF011D928A95E9F775
:102AF0008DEFC82E83E0D82E7F0110E0F701D18240
:102B0000C082BE016F5F7F4F812F0E947A22892B86
:102B100079F488E0FE013196D60101900D928A95F4
:102B2000E1F789859A85D70113969C938E93129726
:102B3000BAE0CB0ED11CE7E0EE0EF11C1F5F18309F
:102B4000E9F62A960FB6F894DEBF0FBECDBFDF912F
:102B5000CF911F91FF90EF90DF90CF9008950E944A
:102B600043150E945B150895CF92DF92FF920F9359
:102B70001F93CF93DF93CDB7DEB72A970FB6F894A4
:102B8000DEBF0FBECDBF8C01603269F5DC0111964E
:102B9000EC911197EE3038F5F0E0E354FA4C0C94D8
:102BA000DB3488E0ECE1F1E0DE01119601900D925A
:102BB0008A95E1F780E2F80111928A95E9F786E0BB
:102BC000D8018C9311961C92119712961C92129711
:102BD00013961C92139788E0FE013196149601908B
:102BE0000D928A95E1F72A960FB6F894DEBF0FBED4
:102BF000CDBFDF91CF911F910F91FF90DF90CF90CC
:102C0000089588E3F801808381E081831282138232
:102C1000EACF13968C911397682F70E0762F662772
:102C200012968C91860F972F911D092E000CAA0BDE
:102C3000BB0B45E0880F991FAA1FBB1F4A95D1F710
:102C4000AC01BD01405E5F4F6F4F7F4F4817590782
:102C50006A077B0740F28833E1E09E07A105B105D2
:102C600010F64933F1E05F076105710520F048E394
:102C700051E060E070E0481B590BBC0164567E4F88
:102C8000C8010E941F35AFCF40E250E06FEF70E007
:102C90000E943E3580912103D8018C9380911F03BF
:102CA00011968C93119712961C92129713961C9260
:102CB000139781E014968C93149715968C9393CF69
:102CC00081E090E09093200380931F0382E390E0E3
:102CD00090931E0380931D030E942F2D90931C033D
:102CE00080931B0380CF80911F0390912003892B39
:102CF00091F160E080E00E94BE13D82E61E081E097
:102D00000E94BE13F82E80911B0390911C030E9419
:102D1000472D8536910550F1DD2041F1FF2031F13D
:102D20000E942F2D90931C0380931B0380911D0301
:102D300090911E03019790931E0380931D03892B8E
:102D400051F41092200310921F0381E090E09093C1
:102D500022038093210380912103F80180838091D5
:102D60001F03818380911D0382833DCF82E390E026
:102D700090931E0380931D03EECF109222031092B6
:102D8000210331CF40E250E0BC0112968D919C911D
:102D90000E94161B28CFBC016F5F7F4F4FE150E0B0
:102DA000FC01828193810E94461BD8018C931BCF2A
:102DB000BC016C5F7F4F4CE150E0FC01828193814C
:102DC0000E94611BF2CF0E94C61A0DCFFC018281C6
:102DD000823009F447C0E0F48823D9F1813009F04A
:102DE00002CF13968C912AE0F22EFE0131966F01EC
:102DF000DF01EF2D1D92EA95E9F7B6010E945222FC
:102E0000D8018D93F60101900D92FA94E1F7EBCE83
:102E1000833009F454C0843009F0E5CE1396FC9059
:102E20008AE03496DE01119601900D928A95E1F7C1
:102E300089859A850E9436159A878987BE016F5FBA
:102E40007F4F8F2D0E948E22F80180830E945B1598
:102E5000CACE80E21D928A95E9F788E0808381835B
:102E60001282C1CE1396FC908AE03496DE01119650
:102E700001900D928A95E1F789819A810E94361519
:102E80009A8389838B819C810E9436159C838B83D6
:102E90008D819E810E9436159E838D838F819885BA
:102EA0000E94361598878F83BE016F5F7F4F8F2DED
:102EB0000E946622F80180830E94431594CE1396E7
:102EC0008C919AE0F92EFE0131966F01DF01EF2D12
:102ED0001D92EA95E9F7B6010E947A2291CFA6E009
:102EE000B0E0E5E7F7E10C94F83490934E0480935A
:102EF0004D04811520E2920730F40E947E0326964D
:102F0000E2E00C94143580EF89838A830E942F2D90
:102F10008160682F9C838B8349815A817C8181E009
:102F200091E00E941A05EBCFA6E0B0E0EAE9F7E1F4
:102F30000C94F83490934E0480934D04811520E254
:102F4000920730F40E9494032696E2E00C94143524
:102F500080EF89838A830E942F2D8160682F9C8354
:102F60008B8349815A817C8181E090E00E941A051F
:102F7000EBCF0F931F93CF93DF938C01EB0169E0AD
:102F800073E08C2F0E945222892BA1F480916D0452
:102F900090916E04019798F4DD27CD5EDC4F888117
:102FA000F80112821882833029F180F4813091F087
:102FB0008230B9F0DF91CF911F910F910895EFE921
:102FC000FFE03197F1F700C00000E4CF8430B9F0A2
:102FD000853081F78091090390910A03009751F39E
:102FE00006C080910B0390910C03009799F30E9407
:102FF0009417E0CF80910D0390910E03F6CF80914E
:103000000F0390911003009791F7209109033091DD
:103010000A0380910B0390910C0321153105F1F205
:10302000009729F7C901E3CFCF93DF93EC010E940A
:103030006F1780916D0490916E04019730F4CE016A
:103040000E949417DF91CF910895EFE9FFE0319747
:10305000F1F700C00000F1CF0F931F93CF93DF93E0
:103060008C01EB0169E073E08C2F0E945222892BC6
:1030700009F05CC0FE01FF27D80112968C911297CF
:10308000ED5EFC4F8130B9F415969C9192FF02C021
:1030900080830AC090FFFCCF82E0808380910B0385
:1030A00090910C030097B9F48091090390910A0361
:1030B0000097E1F110C08230B9F515968C9182FD30
:1030C00028C080FD0BC083E0808380910D03909128
:1030D0000E03009701F10E946F1728C084E08083DF
:1030E00080910F03909110030097A9F78091090335
:1030F00090910A030097F9F00E94141880910B0335
:1031000090910C03009739F78091090390910A037D
:10311000E2CF85E080838091090390910A030097B4
:1031200029F00E941418F0CF86E08083DF91CF91C0
:103130001F910F91089580910B0390910C03B8CFCC
:103140000F931F93CF93DF938C01862F69E073E079
:103150000E945222892BB1F4C0910903D0910A0335
:10316000209781F0F8018281833051F4CE010E94D2
:103170001418CE010E941418CE010E94141802C027
:103180008430D0F7DF91CF911F910F910895AAE07D
:10319000B0E0EDECF8E10C94F4348C017B01975530
:1031A0008F3F910509F070F4BE016F5F7F4F802F54
:1031B0000E945222892B31F489859A852A96E6E06D
:1031C0000C941035B701C8010E94901BF7CFCF9324
:1031D000DF93FB012581211131C0EC01D755CF3F91
:1031E000D10509F058F569E073E08C2F0E94522256
:1031F000892B21F5CE0124E0880F991F2A95E1F74C
:10320000FC01E757FD4F22812130E1F420910903B1
:1032100030910A03232B91F020910B0330910C0382
:10322000232B61F020910D0330910E0340910F0389
:1032300050911003242B352B232B61F081E0DF917B
:10324000CF9108952230D1F720910D0330910E03D4
:10325000232BA1F3FC01E257FD4F20812E7F208319
:1032600087579D4F0E94AE28E9CFEFE4F4E08481B8
:1032700095812AE030E0B9010E94B33460930D01DA
:10328000868180930C01828580930B0184858093D5
:103290000A0186859785B9010E94B33460930901BC
:1032A00080898093080182898093070184898093B3
:1032B00006010895B0E0A0E0E0E6F9E10C94F034F6
:1032C0008FEF9FEF4430510508F469C04091EB0344
:1032D00041FB882780F990E0880F991F42FB002767
:1032E00000F910E0000F111F000F111F802B912B10
:1032F00040FBCC24C0F8D12C8C299D2943FB2227EC
:1033000020F9C22FE0E0DE2F53E0CC0FDD1F5A95ED
:10331000E1F78C2B9D2B44FBAA27A0F9B0E0E4E059
:10332000AA0FBB1FEA95E1F78A2B9B2B45FBEE27E3
:10333000E0F9F0E0A5E0EE0FFF1FAA95E1F78E2B74
:103340009F2B46FB222720F930E0B6E0220F331FE7
:10335000BA95E1F7822B932B47FB222720F930E027
:103360003695322F222737952795822B932B209144
:10337000EC03322F3170F32EE82EF92A26952170B6
:10338000B22EBB0CA82EBF28C501BB0CAA0BBB0BD1
:10339000FB0180839183A283B38390E080E0CDB76B
:1033A000DEB7EAE00C940C35CF92DF92EF92FF92F9
:1033B0008FEF9FEF4430510508F46AC0FB01C080D5
:1033C000D180E280F3800E9456068091EB03C0FA20
:1033D00080F9B701A601769567955795479540FB0B
:1033E00081F9B701A60122E0769567955795479533
:1033F0002A95D1F740FB82F9B701A60133E0769513
:103400006795579547953A95D1F740FB83F9B701F2
:10341000A601E4E07695679557954795EA95D1F72B
:1034200040FB84F9B701A601F5E0769567955795BD
:103430004795FA95D1F740FB85F9B701A601A6E0BB
:103440007695679557954795AA95D1F740FB86F9EC
:10345000B701A601B7E07695679557954795BA9558
:10346000D1F740FB87F98093EB038091EC03D0FA0E
:1034700080F9D1FACC24C0F8C0FA81F98093EC032A
:103480008091EB039091EC030E94FB0F90E080E0B1
:10349000FF90EF90DF90CF90089580914F0490912E
:1034A00050040E94351D0895DB01FC0132962591E0
:1034B00034914217530758F0FC013496659174918A
:1034C000A901CD010E94353590E080E008958FEF8D
:1034D0009FEF08950F931F93CF93DF930FE414E0B2
:1034E000D0E0C0E0CE010E944022F80161918F013E
:1034F000861719F0CE010E944A222196C432D105C6
:1035000089F7DF91CF911F910F910895DA019C0106
:103510002E5F3F4FF90145915491F9012591349166
:10352000A217B30758F0FC013496859194910E943C
:1035300035350E946A1A90E080E008958FEF9FEF82
:1035400008950F931F93CF93DF930FE414E0D0E01F
:10355000C0E0CE010E944022F80181938F012196A4
:10356000C432D105B1F7CEEDD2E0FE018591949140
:10357000009711F0FC0109952C96F3E0CA3DDF0796
:10358000A1F7DF91CF911F910F910895EFE4F4E03F
:10359000128E138E8FEA90E09183808325E0248F32
:1035A00088E893E1938382838AE090E09583848323
:1035B00044E150E05783468348E050E0518740871C
:1035C000938782876EE170E0758764879787868727
:1035D00080E590E0918B808B538B428B48E250E0EA
:1035E000558B448B42E350E0578B468B48EC50E0C0
:1035F000518F408F158E178E168E91A380A322A314
:103600000E946A1A0E9456061092EC031092EB0375
:10361000ECEEF3E08081846080838091EB039091F5
:10362000EC030E94FB0F0E94A11A0895EF92FF92F3
:103630000F931F93CF93DF937C01EB018A016FEF10
:1036400070E0CE010E943E3524ED32E0A0EDB3E003
:1036500090E080E0AC014E5F5F4F0417150788F0E3
:10366000F90165917491E616F70630F48C0F9D1FF1
:10367000FC0171836083CA01245F3F4FA217B30727
:1036800049F7CDB7DEB7E6E00C9410359C0184ED28
:1036900092E0FC01A591B4912A173B0741F00C96EA
:1036A000E3E0803D9E07A9F78FEF9FEF0895FC01AF
:1036B00036962591349121153105B1F3F90109951B
:1036C00008950F931F93CF93DF93C4EDD2E0FE01D3
:1036D000259134918217930741F02C9623E0C03D49
:1036E000D207A9F70FEF1FEF15C0FE0138962591FD
:1036F000349121153105B1F3CE01F90109958C0101
:10370000892B41F4FE013A9685919491009711F02E
:10371000FC010995C801DF91CF911F910F91089588
:103720008091670490916804089580916C04817081
:10373000089580916C048695817091E089270895A1
:1037400080916C0483FB882780F90895809165043B
:103750009091660408958832910538F48E31910570
:10376000E8F40497A0F480E008958933910558F4B3
:103770008D32910510F48B97B1F780916A0482FB2A
:10378000882780F908C084369105B9F3ECCF809181
:103790006A048295817091E08927089580916A0476
:1037A00083FB882780F9F7CF80916A0485FB8827FF
:1037B00080F9089580916A0486FB882780F908952E
:1037C00080910201877F8093020182E00E94A70E10
:1037D0008091020184FF06C08F7E8093020182E007
:1037E0000E948E0E8091020185FF06C08F7D80931E
:1037F000020180E20E948E0E0E946C0F0895CF930A
:10380000DF93EC01662319F082E00E94A10ECE0145
:1038100090528115904308F4DD27CE010E947E036B
:10382000DF91CF9108959C0130522115304308F467
:1038300099270E9494030895FC0123E0F695E795EB
:103840002A95E1F7EE71FF27ED5DFC4F2081318174
:10385000AC014F70552781E090E002C0880F991F9E
:103860004A95E2F7662329F0822B932B918380837C
:1038700008958095909582239323F8CFFC0123E04F
:10388000F695E7952A95E1F7EE71FF27ED5DFC4F80
:103890008F70992721E030E002C0220F331F8A95F4
:1038A000E2F7808191812823392381E0232B09F4D9
:1038B00080E00895B0E0A0E0E0E6FCE10C94F33491
:1038C000EC017B01D42E89018091020182FF83C02B
:1038D00020914C0330914D032C173D0719F0209790
:1038E00009F079C0909102019B7F9093020161E001
:1038F00091FD10C080914E0390914F03A701481B8A
:10390000590B61E080910301909104014817590718
:1039100008F460E061708091020160FB81F980939E
:103920000201C9010E941C1C0E948B0E81FF08C06D
:103930008091020180618093020182E00E94940ED6
:103940000E948B0E85FF08C08091020180628093E7
:10395000020180E20E94940E6091020166956170FE
:10396000A80180914C0390914D030E94FF1BD11040
:1039700014C080916D0490916E04019728F56091B8
:10398000020166956170A80180914C0390914D03EE
:103990000E94131C0E94E01B2DC0B80180914C03B3
:1039A00090914D030E94D41B882319F3B801809194
:1039B0004C0390914D030E94DA1B8111DACFCDB7F1
:1039C000DEB7E7E00C940F35EFE9FFE03197F1F750
:1039D00000C00000D2CFCE010E943E1CA801682F7B
:1039E000CE010E94131C80914C0390914D038C17C3
:1039F0009D0781F2F0924F03E0924E03E0CF809159
:103A00006A0480FF1EC08091020182FF1AC00E94DA
:103A10002F2D20914E0330914F03AC01421B530BCD
:103A200020910301309104014217530750F023E421
:103A300033E041E0BC0180914C0390914D030E9422
:103A40005A1C089590910201892F8E7F90FF81600A
:103A5000809302010E94E01B0895809102018E7FF5
:103A6000809302010E94E01B0895909304018093CB
:103A700003010895B0E0A0E0E0E4FDE10C94F2342D
:103A8000EC017B0180916A0480FD07C011E0812F69
:103A9000CDB7DEB7E8E00C940E350E942F2D6C01F7
:103AA000F7018581882369F18091020182FF08C0B6
:103AB00023E433E040E0B60190E080E00E945A1C2D
:103AC000C431FCE7DF07D1F0C5312CE7D20751F054
:103AD000C3318CE7D80741F4809102018160809363
:103AE000020102C00E94221DCE0190528115904316
:103AF000B0F410924D0310924C03C8CF0E942D1DBC
:103B0000F3CF809102018F7EC13ED10531F0C53ED9
:103B1000D105B9F5809102018F7D809302018091DA
:103B2000020180FFB3CFB701CE010E94AB1BF701AA
:103B30001581882309F4AFC0112309F4A5C00E94A0
:103B40008B0E182F0E94B10E812B8D7F01F11092E8
:103B50004D0310924C0380916A0481FD18C060E00F
:103B6000CE010E941C1CA70160E0CE010E94FF1B39
:103B70000E94B10E8D7F0E94040F82E00E949B0F75
:103B800059C0CE0190528115904348F67FCF89E00D
:103B9000F701A3E4B3E001900D928A95E1F710924A
:103BA00046031092450380914C0390914D03C81732
:103BB000D90709F04AC0B701CE010E94D41B88235F
:103BC00009F443C08091020181FD36C080914E030B
:103BD00090914F038601081B190BB70180914C038C
:103BE00090914D030E94C7180817190770F50E949D
:103BF0008B0E81FF08C080910201806180930201D9
:103C000082E00E94940E0E948B0E85FF08C0809176
:103C1000020180628093020180E20E94940E609112
:103C2000020166956170A70180914C0390914D034C
:103C30000E94FF1B10E02BCFB70180914C039091A5
:103C40004D030E94DA1B8111C1CF0E948B0E182FE9
:103C50000E94B10E812B9091020181FB91F990930A
:103C600002010E94B10E8D7F0E94040FD0934D037C
:103C7000C0934C03D0924F03C0924E038091020137
:103C800084608093020179CF970140E0B601CE01B4
:103C90000E945A1CFCCE11112CCFF8CE0E94D90FD5
:103CA000089580E00E94D413817008950E94A014AA
:103CB0002FEF86E791E0215080409040E1F700C06F
:103CC00000000E94A0140E94511E882321F00E942F
:103CD0004E1E0E947A2D08950E94561E0895089542
:103CE000EF92FF920F931F93CF93DF938091C303C3
:103CF000882361F0E09150038DE0F82E8091C3039A
:103D0000E81748F01092C30310925003CDB7DEB706
:103D1000E6E00C941035EE24E394EE0EE0925003AE
:103D2000CE2FD0E0EF9DF0011124E55AFC4F8481A5
:103D30008823B1F087819085892BA1F481859285B4
:103D40008F3F980779F061E00E946F1EFC9EF001A2
:103D5000FD9EF00D1124E55AFC4F14820E94AE0E18
:103D6000EE2DCCCF00811181228133814481558198
:103D70006681778180850E94BA0DE8CF0895109200
:103D8000C5031092C403E1E5F2E08581811102C010
:103D900014821682379682E0E938F807B1F7089561
:103DA000DC016091590380915A03962F891301C059
:103DB0000895292F30E0F901EE0FFF1FEF5AFC4F55
:103DC000408151814A175B07A1F487E08A9FA001D7
:103DD0008B9F500D11244F5A5D4F81E0FA0184836F
:103DE0009613E6CF2F5F3F4F23703327209359035D
:103DF00008952F5F3F4F922F9370D8CF6F927F928D
:103E00009F92AF92BF92CF92DF92EF92FF920F9369
:103E10001F93CF93DF93DB0114962C9114972111FC
:103E200057C0A090C303EBE5F3E030E020E0B12CF5
:103E300066246394712C2A1508F048C0C384D48486
:103E4000ED90FC9011976FEF7FEF912C492D50E092
:103E50008A01000F111F0E0D1F1DE8010881198135
:103E60000115110531F0C016D10609F4BA01939479
:103E7000EDCF6F3F7607D9F1E30102C0CC0FDD1F14
:103E80006A95E2F7BC2AB30102C0660F771F9A94C5
:103E9000E2F7AB0141505109B416150639F51296F7
:103EA0004D915C9113976DE0629FF001639FF00D5F
:103EB0001124E55AFC4F5087478324E02483108265
:103EC00011829287818721E015962C930E94D01E43
:103ED000DF91CF911F910F91FF90EF90DF90CF90E6
:103EE000BF90AF909F907F906F90089514822F5F46
:103EF0003F4F3D96A0CF1F93CF93DF93C0915903BF
:103F000017E080915A038C1308C00E94701E0E9413
:103F1000BF1EDF91CF911F910895D0E0FE01EE0FFB
:103F2000FF1FEF5AFC4F80819181189FB001199FAC
:103F3000700D11246F5A7D4F0E94FE1E2196C37092
:103F4000E0CF0F931F93CF93DF93DC012D913C9132
:103F5000119740E090E080E0E82FF0E0EE0FFF1FC7
:103F6000E20FF31FC081D1812097B9F0FB010081DE
:103F7000118190E005C0CE17DF0709F441E09F5F93
:103F8000E92FF0E0EE0FFF1FE00FF11F0190F0812D
:103F9000E02D309781F78F5FDFCF442349F09817EA
:103FA00008F4DB01CD01DF91CF911F910F910895AE
:103FB000B0E0A0E0F7CF80910501882341F1809126
:103FC000C6039091C703009711F10E94472D2091DD
:103FD000C4033091C50328173907C8F490915903D9
:103FE00080915A03981759F00E947B1F1092C503C5
:103FF0001092C4031092C7031092C60308950E9442
:10400000701E1092C7031092C6030E94BF1E08952F
:104010001092C7031092C6031092050180915A03B3
:10402000809359030E94BF1E0E94701E08958091C4
:104030000501882319F00E940820089581E08093EB
:1040400005010895ADE0B0E0E8E2F0E20C94E83458
:104050004C016B0180352CE7920761F4FB0115815F
:104060001123E9F081E080930501812F2D96E2E193
:104070000C9404358135FCE79F0739F4FB01158169
:10408000112369F00E940820F0CF82359C4739F453
:10409000FB011581112319F00E941720E6CF9091A2
:1040A000CD018091CE01892B0E94C004182F0E945F
:1040B000BE1E181731F0F601608171810E94A312B3
:1040C0004C0161E5E62E62E0F62EB12CA12C1D8696
:1040D00066246394712CCE0101969B878A87F70131
:1040E0002081318144244A94542C212C822D90E04B
:1040F000FC01EE0FFF1FE20FF31F408151814115BC
:10410000510531F08416950609F42C012394EECF65
:10411000312CFFEF4F165F0609F44CC0F7014481C4
:1041200030900501832D411180E0F82FF1703F2E72
:10413000F6018581882309F4D6C0332009F4D3C061
:10414000B701C5010E94A61B8C01F7018581811171
:1041500014C09301042C01C0220F0A94EAF786814F
:10416000822B86838091C4039091C50380179107A9
:1041700020F41093C5030093C403C301022C02C0B2
:10418000880F991F0A94E2F70197F70126812817F3
:10419000190681F48091C6039091C703009709F432
:1041A0004FC00E94472D0817190708F049C021E0A9
:1041B000F7012483FD85F329FD872FEFA21AB20AA8
:1041C00087E0E80EF11C98E0A916B10409F087CF4A
:1041D000F6018581882309F4F1C0FD85FF2309F4E8
:1041E000EDC00E942F2D9093C7038093C60380914A
:1041F000C303883008F591E0980F9093C30399E0CA
:10420000F601DE01119601900D929A95E1F72DE0ED
:10421000829FC0011124855A9C4F29E0FE013196EE
:10422000DC0101900D922A95E1F72FEF3FEFFC01A1
:10423000328721879486838611E0FD851F2715CF5D
:104240002090590380915A038C8790E080E02C8560
:10425000221216C08E159F0509F4ACCF422C512CAA
:10426000F201EE0FFF1FEF5AFC4FB182A0828FEFD9
:10427000481A580A93E04922552440925A039ACF8B
:10428000422C512CF201EE0FFF1FEF5AFC4F8081A0
:104290009181E7E0E89F8001E99F100D11240F5AFA
:1042A0001D4FB701C8010E94A11F0097A9F021E08E
:1042B000FC0124838E159F0509F47CCF20915903BE
:1042C00022120AC08017910739F492012F5F3F4FE5
:1042D0002370332720935903EFEF4E1A5E0AF42D13
:1042E000F3702F2EB4CFF701F581FC87F70186819B
:1042F00090E0FC85F11120C09301022C02C0220F36
:10430000331F0A94E2F7215031092817390731F495
:10431000442309F451C0C5010E94D01EC301042CDE
:1043200001C0880F0A94EAF7982F9095F7018681CB
:10433000892386833C843ECFAC01042C02C0559572
:1043400047950A94E2F7BA01617077279C012150E2
:10435000310982239323892B59F5672B49F1F70102
:1043600082819381892BF9F0EA85FB8527E0119200
:104370002A95E9F70E942F2D282F8B839C8384E0B8
:104380008D83F70182819381782F888799870981AE
:104390001A813C8144E05E816F81892F0E94BA0DB1
:1043A000F7011582BBCF60E0C5010E946F1EF8CFF8
:1043B000F42FF170FC87B2CF3C86B0CF90915903B7
:1043C00080915A03981719F00E947B1F35CF0E94E5
:1043D000701E1092C7031092C6030E94BF1E2CCFFE
:1043E00084E0089550E0440F551F94E1699F400D0B
:1043F000511D112490E5899F400D511D1124CA01C2
:10440000889608950F931F93CF93DF938430C8F459
:104410006430B8F44A30A8F40E94F2218C010E9462
:104420005535C82FD0E0DC2FCC27C80101960E945B
:1044300055359E01282BC901DF91CF911F910F9116
:10444000089590E080E0F8CF0F931F93CF93DF9310
:10445000122F032F843078F4643068F44A3058F413
:104460000E94F221EC01602F0E947335612FCE0172
:1044700001960E947335DF91CF911F910F9108959E
:104480008432910528F488599E4F0E94553508952D
:1044900080E008958432910520F488599E4F0E944F
:1044A000733508959B01883070F49AE0899FB001BC
:1044B000112464577E4F4AE050E0C9010E944535FF
:1044C00090E080E008958FEF9FEF08959B01883082
:1044D00070F49AE0899FB001112464577E4F4AE03E
:1044E00050E0C9010E94973590E080E008958FEF79
:1044F0009FEF08959B01883070F49AE0899FB00186
:10450000112464527E4F4AE050E0C9010E944535B3
:1045100090E080E008958FEF9FEF08959B01883031
:1045200070F49AE0899FB001112464527E4F4AE0F2
:1045300050E0C9010E94973590E080E008958FEF28
:104540009FEF0895A4E1B0E0E8EAF2E20C94F234BF
:10455000C0902103D090220381E090E09093220349
:104560008093210300E010E012C04F2D612F802FB7
:104570000E9427039C014F2D612F802F0E9424222F
:10458000F3948AE0F812F1CF1F5F143011F0F12C90
:10459000ECCF0F5F043039F70E94C61A1C861B86C9
:1045A0001E861D86188A1F861A8A198A88EC90E052
:1045B0009C8B8B8B10E0BE01655F7F4F812F0E942B
:1045C00066221F5F1830B9F7FE0131967F018AE03D
:1045D00011928A95E9F710E0B701812F0E948E228F
:1045E0001F5F1830C9F7D0922203C092210364964E
:1045F000E8E00C940E35EF92FF920F931F93CF9348
:10460000DF93EC018A017C01E60EF71ECE0188964D
:10461000CE15DF0529F4CDB7DEB7E6E00C941035F2
:10462000C03421E0D20740F40E945535F801808360
:104630000F5F1F4F2196EACFF8011082F9CFB0E04B
:10464000A0E0E5E2F3E20C94EA34EC017B018A019C
:1046500080349140D8F480E491E08C1B9D0B861748
:104660009707A0F03E0138E2630E711C8091210390
:10467000909122032E01460E571E892B61F07E0178
:10468000C7018896E414F50409F043C0CDB7DEB73E
:10469000E0E10C9406356E0181E0C822DD24C0FF04
:1046A0000FC0CE0187960E945535F8019081892769
:1046B0009827892781159C4719F48FEFF80180838B
:1046C000570140FE13C0F1E0AF1AB10848018A0C4F
:1046D0009B1CC3018E0D9F1D0E945535F4019081D6
:1046E00081159C4719F48FEFF4018083F801EC0DDC
:1046F000FD1D2FEFCA14DB0410F690818181811516
:104700009C4711F42083218382E0C80ED11C32968D
:10471000F1CFE0E4EE16E1E0FE0640F4F701EC1B19
:10472000FD0BE00FF11F60810E947335FFEFEF1A60
:10473000FF0AA6CF843038F4643028F44A3018F4E5
:104740000E940222089590E080E0089580E108959B
:1047500084ED91E00895EF92FF920F931F93CF9312
:10476000DF93EC018A017C01E60EF71ECE01845D29
:104770009D4FCE15DF0529F4CDB7DEB7E6E00C94EA
:104780001035C43D21E0D20740F40E945535F801B0
:1047900080830F5F1F4F2196E9CFF8011082F9CF78
:1047A000B0E0A0E0E6EDF3E20C94F2347C016A01A3
:1047B0008C01060F171FEC01CE01845D9D4FC017C1
:1047C000D10729F4CDB7DEB7E8E00C940E35C43D2F
:1047D00021E0D20740F4FE01EE19FF09EC0DFD1DAA
:1047E00060810E9473352196E7CFCF93DF93CCE2AF
:1047F000D2E060E0CE010E9473352196C11584E0BD
:10480000D807B9F7DF91CF910895A4E0B0E0EBE0CD
:10481000F4E20C94EB34F82E2FE0281708F4B1C022
:104820008FEF93E00E9455358111ABC00CE212E08E
:10483000F11039C034E0C32ECE0101965C0155243D
:104840005A94F5012C2D11922A95E9F778014FEF32
:10485000E41AF40AC8010E9455358983882309F4B3
:1048600090C0813009F088C0480152E0850E911C4B
:10487000C7010E945535D82E8A83882309F481C048
:104880008FEF8D0D8330E8F4780183E0E80EF11CA2
:10489000C4010E9455358B83882319F0C5010E94FD
:1048A0008B288701CECF011544E0140709F469C0B5
:1048B000C8010E945535811101C0FA940F5F1F4F46
:1048C000B7CF8BEF8D0D833060F5380193E0690E23
:1048D000711CC4010E9455358B837301882309F331
:1048E0007801E4E0EE0EF11CC3010E9455358C8383
:1048F0008823B9F28B819C818130FFEF9F0710F0F4
:10490000982F882726E0D21631F047E0D41631F0F0
:104910000E941418C6CF0E946F17C3CF0E9494172D
:10492000C0CF54E07401D512BCCFC4010E945535EC
:10493000D82E780184E0E80EF11CC80103960E948D
:104940005535DD20F1F08823E1F0E82FE150FF0B31
:104950005E9EC0015F9E900D11244D2D4150550B60
:10496000840F951F019708F49CCFEFE9FFE0319782
:10497000F1F700C00000F6CF60E0C5010E942028DA
:1049800090CF2496EFE00C940735282F35EB2303C6
:10499000C001112497FF04C080589109892F089500
:1049A00080589F4FFBCF8091CE0360915704709148
:1049B000580480FF16C020910B01269FC001279F3D
:1049C000900D1124BC0176956795769567956038B2
:1049D000710508F043C06115710509F441C0862FC7
:1049E000089581FF0BC020910B01269FC001279FD6
:1049F000900D1124BC0176956795E9CF82FF09C01F
:104A000080910B019B01829FB001839F700D112447
:104A1000DECF2091CD032223D1F290910A01809123
:104A20000B01482F50E0291748F0CB01849FB001BB
:104A3000859F700D949F700D1124C9CF289F900100
:104A40001124269FA001279F500D369F500D112441
:104A5000692F70E0CA010E94B334B9CF8FE708957F
:104A600081E008958091CE0380FF0CC06091070122
:104A700070E075956795759567956115710549F1B4
:104A8000862F089581FF06C06091070170E075953B
:104A90006795F3CF6091070182FD0BC09091CC0325
:104AA0009923A1F06091060180910701961738F0D3
:104AB000682F70E06038710500F38FE70895899FD3
:104AC000C001112470E00E94C734F4CF61E070E0AF
:104AD000D7CF81E008959091D1032091D203922BFA
:104AE0002091D403922B2091D303922B31F098E0A4
:104AF0009093CD0391E09093CC038D3C31F40E94D0
:104B0000D32481958093D20308958E3C19F40E949A
:104B1000D324F8CF8F3C31F40E94D3248195809325
:104B2000D1030895803D19F40E94D324F8CF893D24
:104B300029F40E9432258093D30308958A3D21F4FD
:104B40000E9432258195F7CF8B3D31F40E943225AA
:104B500081958093D40308958C3D19F40E943225E9
:104B6000F8CF9FE2980F983070F4815D990B21E0A7
:104B700030E001C0220F8A95EAF78091D003822BA2
:104B80008093D00308958D3D31F48091CE038160F0
:104B90008093CE0308958E3D21F48091CE038260F0
:104BA000F7CF8F3DB9F78091CE038460F1CF40916C
:104BB000D1038D3C59F48091D20387FF0DC0109230
:104BC000D20341110BC01092CD0308C08E3C81F47A
:104BD0008091D20318169CF3442381F08091D30373
:104BE0009091D403892B09F05AC01092CC030895F8
:104BF0008F3C49F447FFF0CF1092D1038091D2034C
:104C00008111ECCFE0CF803D19F41416ACF3E4CF62
:104C10009091D303893D29F41916F4F61092D30329
:104C2000DBCF8A3D19F497FFD7CFF8CF9091D4030B
:104C30008B3D29F497FFD0CF1092D403CDCF8C3D7C
:104C400019F41916CCF3C8CF9FE2980F983090F45E
:104C5000815D990B21E030E0B90102C0660F771F3A
:104C60008A95E2F7CB0180959091D00389238093B8
:104C7000D003B2CF8D3D31F48091CE038E7F8093EF
:104C8000CE03AACF8E3D21F48091CE038D7FF7CF46
:104C90008F3D09F0A1CF8091CE038B7FF0CF089597
:104CA0000E942F2D9C019091D1038091D203982BCB
:104CB00021F03093CB032093CA039091D3038091CA
:104CC000D403982B21F03093C9032093C8038FECB1
:104CD00093E00E94992B089586E0EFECF3E0DF016A
:104CE0001D928A95E9F71092CD031092CC03109291
:104CF000CE030895FC01828181110EC08381811150
:104D00000BC08481811108C091E08581811101C0AF
:104D100090E0892F8170089581E0FCCFA6E0B0E09B
:104D2000E4E9F6E20C94F73486E0EFECF3E0DE0120
:104D3000119601900D928A95E1F71092D10310928D
:104D4000D2031092D3031092D4038B819C81892BC0
:104D500089F08091CA039091CB030E94472DAC014A
:104D60009091CD039923C9F180910C018417150608
:104D700008F440C08D819E81892B91F08091C803F9
:104D80009091C9030E94472DAC019091CC039923C7
:104D900009F46AC0809108018417150608F472C0EE
:104DA000BE016F5F7F4F8FEC93E00E945C2C8111FE
:104DB00005C08FEC93E00E947A2681110E94502654
:104DC00086E0FE013196AFECB3E001900D928A953A
:104DD000E1F72696E3E00C94133520910D018AE06B
:104DE000289F900111242417350720F69F5F909388
:104DF000CD0302C09F3FD1F71B81112359F00E94C0
:104E0000D3249FEF11160CF491E0899F802D11247B
:104E10008093D1031C81112359F00E94D3249FEF6A
:104E200011160CF491E0899F802D11248093D203F8
:104E30008091D103882309F49DCF1091D2031123CF
:104E400009F498CF0E94C524882351F08093D103A0
:104E5000812F0E94C524882329F08093D2038ACF12
:104E600081E0F4CF81E0F9CF209109018AE0289F09
:104E7000900111242417350708F092CF9F5F90937B
:104E8000CC0302C09F3FD1F71D81112359F00E942E
:104E900032259FEF11160CF491E0899F802D11248B
:104EA0008093D3031E81112359F00E9432259FEF76
:104EB00011160CF491E0899F802D11248093D40366
:104EC0008091D303882309F46BCF1091D40311236D
:104ED00009F466CF0E94C524882351F08093D30340
:104EE000812F0E94C524882329F08093D40358CFB2
:104EF00081E0F4CF81E0F9CFB0E0A0E0E2E8F7E2B2
:104F00000C94F134E82FF0E0E053FC4FB490282FDC
:104F100026952695269530E0F901E059FB4F04913E
:104F2000877010E0082E02C0159507950A94E2F7E5
:104F300001701127F901E05AFB4FE490F12C082E83
:104F400002C0F594E7940A94E2F791E0E922FF2485
:104F5000F901E05BFB4FC491D0E002C0D595C79545
:104F60008A95E2F7C170DD27C62ED12C01151105F7
:104F700049F5E114F10431F086EE0E948305C60183
:104F8000009771F5B6018B2D0E94FF05C6010097B1
:104F900079F5E114F104A1F50115110531F081EE67
:104FA0000E94CC05C6010097C9F5CD2B31F08CE2EB
:104FB0000E941706C114D104C9F5CDB7DEB7E9E0E8
:104FC0000C940D3581EE0E948305C601009789F28D
:104FD000EFE9FFE03197F1F700C000000197F6CF4D
:104FE000EFE9FFE03197F1F700C000000197C8CF6B
:104FF000EFE9FFE03197F1F700C000000197C7CF5C
:1050000086EE0E94CC05C601009731F2EFE9FFE081
:105010003197F1F700C000000197F6CFEFE9FFE00C
:105020003197F1F700C000000197BDCF8FE99FE0F5
:105030000197F1F700C0000091E0C91AD108BACF7A
:10504000EF92FF920F931F93CF93DF93EC01162FF4
:105050000AE08881882309F459C0813009F052C0E0
:105060008981813071F47E0182E0E80EF11C8A8131
:105070000E941706E701812F90E00097D9F521964D
:10508000E8CF823041F47E01E2E0EE0EF11C8A812D
:105090000E948305EFCF833041F47E01F2E0EF0EF2
:1050A000F11C8A810E94CC05E5CF843011F0219655
:1050B000E2CF2A81229690E080E0AE014F5F5F4F01
:1050C0002053330B2A30310550F00097A1F2EFE95D
:1050D000FFE03197F1F700C000000197F6CF089F7D
:1050E000B001099F700D1124C901860F971F2981F6
:1050F000EA01E3CFEFE9FFE03197F1F700C00000EC
:105100000197BBCF612F0E947C27B9CFCDB7DEB707
:10511000E6E00C94103560E00E94202808954115C7
:10512000510511F0FA0109950895CF93DF93EC0131
:105130004A855B856E857F850E948F288B810E94C2
:10514000A70E8C810E94940E0E946C0F86E0FE01D7
:1051500011928A95E9F7DF91CF910895CF93DF936C
:10516000EC018D8181FD11C082608D838B810E9455
:10517000A10E8C810E948E0E0E946C0F488559856D
:105180006E857F85CE010E948F281092D8031092E1
:10519000D7038D8180FD03C0CE010E949528DF9149
:1051A000CF910895CF93FB01C581CC23F1F0E0911D
:1051B000D703F091D8033097D9F0E817F907C1F079
:1051C000FF2724E0EE0FFF1F2A95E1F7DF01A2572A
:1051D000BD4F2C9124602C93E757FD4F9183808322
:1051E000CF010E94AE280E94AE0E8C2FCF91089561
:1051F000C0E0FBCF0F931F93CF93DF938C019755A4
:105200008F3F910509F0C8F5C801992724E0880F60
:10521000991F2A95E1F7EC01C757DD4FFB01258166
:10522000FC01E257FD4F808120FB80F9808322231F
:1052300051F10E942F2D9093D6038093D5038A813C
:105240008F5F8A830E948B0E8B830E949E0E9B81B0
:10525000892B8B830E94B10E8C834E815F816E857A
:105260007F85CE010E948F288D8181FF02C010E0D2
:1052700000E01093D8030093D70381E0DF91CF9132
:105280001F910F9108954C855D856E857F85CE01B8
:105290000E948F288D8181FFF0CFCE010E9495283A
:1052A0008091D7039091D8038017910731F710921E
:1052B000D8031092D703E1CFA9E0B0E0E2E6F9E22B
:1052C0000C94F6348091D7039091D803892B61F127
:1052D0008091D5039091D6030E94472D8C01BE0189
:1052E0006F5F7F4F89E0FB0111928A95E9F780910A
:1052F000D7039091D8030E94C71880179107A0F494
:105300008091D7039091D803992724E0880F991FA3
:105310002A95E1F7FC01E257FD4F208122FD04C0F0
:1053200087579D4F0E94AE282996E4E00C941235D1
:105330001F93CF93DF9387372CE7920759F0C1E093
:1053400088379C47E1F4FB01C581CC2371F10E94B1
:10535000DB2906C0FB01C581CC23B1F00E94D8290E
:105360000E946D090E94DE29D82F0E94DB29C82FD8
:105370000E94D8294D2F6C2F0E94950AC0E08C2FD7
:10538000DF91CF911F9108950E94D8290E94790939
:105390000E94DE29182F0E94DB29D82F0E94D829CD
:1053A000412F6D2F0E94950AEACF0E94DB29EECF94
:1053B00080911001089580910F01089580910E0150
:1053C000089584E290E00E9455358A3A89F485E296
:1053D00090E00E9455358D3B59F486E290E00E94A2
:1053E000553591E0843709F090E0892F8170089558
:1053F00080E0FCCFCF93C82F6FEF81116AEA84E27F
:1054000090E00E9473356FEFC1116DEB85E290E083
:105410000E9473356FEFC11164E786E290E00E944D
:105420007335CF910895089587E290E00E94553535
:10543000682F70E090E080E008950895CF93C62F24
:105440000E941D2A6C2F87E290E00E947335CF9155
:10545000089580E00E94FA2960E070E0CB010E948C
:105460001E2A0E94A2220E94F52381E00E94FA29AE
:1054700008950E94132A0E94142A0E941D2A0E9445
:10548000E129811102C00E94292A08959C01FB0193
:105490008581882351F0A90157574038510530F4D0
:1054A000822F0E94052480E0089581E008952FEF67
:1054B000FC0120830895EF92FF920F931F93CF93E7
:1054C000DF93EC01162F888120911F033091200378
:1054D000232B79F08E3F09F05CC08981833020F066
:1054E0008550833008F055C0612FCE010E94B4155D
:1054F00050C08B3009F4EAC0D0F4843009F488C07D
:1055000060F4823009F44EC008F075C08130F1F1CA
:10551000612FCE010E94572A3CC0863009F48EC00C
:1055200008F481C08A30A0F78FEF888332C08031C1
:1055300009F4A4C000F58D3009F487C008F481C0D7
:105540008E3009F48AC08F3019F780912103909131
:105550002203892BF1F06B8170E06D317105C8F485
:1055600089819A81AE014C5F5F4F982789279827E0
:105570000E94D0230EC0823109F486C008F481C095
:10558000833109F492C08E3F19F6AECF198289E0BB
:105590008A83612FCE010E94E02DCDB7DEB7E6E011
:1055A0000C9410358981823071F0833079F081302C
:1055B00009F0AECF0E943B2D0E94E1346A837B83C9
:1055C0008C839D83E6CF0E94142AF6CF809121031D
:1055D00090912203892BE9F27E0100E0802F0E9446
:1055E000D413F701928383830F5FF2E0EF0EF11C77
:1055F0000430A1F7CECF8981823009F089CF6A814A
:105600007B818C819D810E94E1340E941E2AC1CF42
:105610004B816A8189810E940222982789279827D5
:105620009D838C83B6CF2C813D813227232732275F
:105630004B816A8189810E942422ABCF0E94A222E1
:10564000A8CF0E94A6238983A4CF0E94A8239827CD
:10565000892798279A8389839CCF6B8170E06D316D
:10566000710508F096CF89819A81AE014C5F5F4F3A
:105670009827892798270E94AB238BCF0E94F52378
:1056800088CF0E94F021DFCF6B8170E06D31710512
:1056900008F07FCF89819A81AE014C5F5F4F9827D8
:1056A000892798270E94FB2274CF6B8170E06D31AF
:1056B000710508F06ECF89819A81AE014C5F5F4F12
:1056C0009827892798270E941F2363CF8091210361
:1056D00090912203892B09F45CCFCE010E94E02D2A
:1056E0002FEF81EE94E0215080409040E1F700C020
:1056F00000000E947A2D4DCF9093DE038093DD034E
:105700000895E091DD03F091DE03309729F00190D8
:10571000F081E02D0995089580E00895E091DD0382
:10572000F091DE03309721F00280F381E02D09959E
:105730000895E091DD03F091DE03309739F022E027
:10574000DC012C930680F781E02D09950895A3E0F4
:10575000B0E0EDEAFBE20C94F8342091DB033091E9
:10576000DC0328173907A1F09093DC038093DB0357
:10577000E091DD03F091DE03309751F023E02983BF
:105780009B838A830084F185E02DCE0101960995E3
:105790002396E2E00C941435A3E0B0E0E2EDFBE2E6
:1057A0000C94F8342091D9033091DA032817390783
:1057B000A1F09093DA038093D903E091DD03F09197
:1057C000DE03309751F024E029839B838A83008491
:1057D000F185E02DCE01019609952396E2E00C9427
:1057E000143540910001509101019A012E5F3F4F05
:1057F000485F5F4F80E02417350709F40895F901E9
:1058000091919F019923B9F38F5FF5CF882371F0B0
:105810002091000130910101F9013296285F3F4F3C
:105820009191981729F0E217F307D1F780E00895D6
:1058300081E008959C01FC0132969FEF80E0419148
:10584000461751F09F3F19F4411101C0982F8F5F07
:105850008630A9F79F3F09F40895290F311D97FD60
:105860003A95F90162830895FC01329608962191D8
:10587000261303C0DF0111971C92E817F907B9F747
:105880000895682F80910001909101010E941A2CC7
:105890000895682F80910001909101010E94342C9D
:1058A0000895E0910001F0910101329686E0DF0158
:1058B0001D928A95E9F70895DC01FB0111969C91F0
:1058C00011978181981322C012968C911297882388
:1058D00019F0928189131AC013968C91139788231B
:1058E00019F09381891312C015968C91159788230E
:1058F00019F0958189130AC014969C91992321F07F
:1059000081E02481291303C080E001C081E081701F
:10591000089508950E94892C0895811106C081E0A0
:105920008093DF030E948A2C089582E0F9CF83E000
:105930008093DF030E948A2C08950E948D2C089585
:1059400081E08093DF030E948A2C08950E94A02C9E
:105950000895089508950E94AA2C08950895089521
:105960000E94A92C0895CF930E94AE2C0E94A014EF
:105970000E94AF2CC0E08C2F0E94D413892B31F4ED
:10598000CF5FC430C1F780E0CF91089581E0FCCFB4
:1059900085B7806885BF85B7806885BF08951F92E9
:1059A0001FB61F9211248F939F93AF93BF93809143
:1059B000E003811113C08091730490917404A0914D
:1059C0007504B09176044196A11DB11D80937304B6
:1059D00090937404A0937504B0937604BF91AF9133
:1059E0009F918F911F901FBE1F90189580917B04EF
:1059F000843031F10E94B6041092E00388E190E017
:105A000020E40FB6F894A895809360000FBE209311
:105A1000600083B7817F846083BF83B7816083BF69
:105A20007894889583B78E7F83BF0FB6F894A89536
:105A300080916000886180936000109260000FBECA
:105A400008950E9456060E94BB04089582E084BD1A
:105A500093E095BD9AEF97BD80936E0008952FB7A0
:105A6000F8948091730490917404A0917504B0919E
:105A700076042FBF08952FB7F89460917304709146
:105A8000740480917504909176042FBF08959C0151
:105A90004FB7F8948091730490917404A0917504A9
:105AA000B09176044FBF821B930B089578941F9298
:105AB0001FB61F9211248F939F93AF93BF93809132
:105AC000730490917404A0917504B09176040196CA
:105AD000A11DB11D8093730490937404A093750469
